:020000041000EA
:1000000000B5324B212058609868022188439860DF
:10001000D860186158612E4B002199600221596106
:100020000121F02299502B49196001219960352056
:1000300000F044F80222904214D00621196600F024
:1000400034F8196E01211966002018661A6600F04E
:100050002CF8196E196E196E052000F02FF8012189
:100060000842F9D1002199601B49196000215960AB
:100070001A491B48016001219960EB211966A021F2
:10008000196600F012F800219960164914480160C1
:100090000121996001BC002800D000471248134993
:1000A000086003C880F30888084703B5996A0420EC
:1000B0000142FBD001200142F8D103BD02B5186610
:1000C0001866FFF7F2FF186E186E02BD00000240BE
:1000D000000000180000070000035F00212200005C
:1000E000F4000018222000A00001001008ED00E03C
:1000F00000000000000000000000000074B24E7A12
:1001000000200420F7010010C3010010C5010010F9
:10011000C1010010C1010010C1010010C101001097
:10012000C1010010C1010010C1010010C701001081
:10013000C1010010C1010010C9010010CB01001065
:10014000CD010010CD010010CD010010CD01001037
:10015000CD010010CD010010CD010010CD01001027
:10016000CD010010CD010010CD010010CD01001017
:10017000CD010010CD010010CD010010CD01001007
:10018000CD010010CD010010CD010010CD010010F7
:10019000CD010010CD010010CD010010CD010010E7
:1001A000CD010010CD010010CD010010CD010010D7
:1001B000CD010010CD010010CD010010CD010010C7
:1001C00000BE00BE00BE00BE00BE00BEEFF3058054
:1001D000103800BEF2EB8871A88A0010D08A001097
:1001E0003402001090A31AE700201F49086006C8D7
:1001F00081F3088810471D48006800282FD10DA4FE
:100200000ECC002902D000F012F8F9E71849194A7B
:10021000002000E001C19142FCD1174988471749ED
:1002200088471749884700BEFDE701C901C29A42C5
:10023000FBD37047D08A0010C0000020B80C00200B
:10024000C89600100000042000000420C89600108A
:10025000001004200010042000000000704709482E
:1002600003F090FB0047000008ED00E0000000D024
:10027000B80C00205C1A00200D270010C9040010E3
:10028000C92600105756000006005250ABB3605309
:10029000EC83001006005250861C0302FC83001001
:1002A000060052505422A29D0484001005005250B2
:1002B000DE65F468C8960010F8B5C04610B5064C67
:1002C0002378002B07D1054B002B02D0044800E017
:1002D00000BF0123237010BDC00D002000000000EE
:1002E00050740010044B10B5002B03D00349044890
:1002F00000E000BF10BDC04600000000C40D00209B
:100300005074001070B50400082900D070BD062894
:100310000CD0072C13D0082C24D0092CF6D1154B67
:1003200000221A60144804F0A5FBEFE7134D29687A
:10033000134804F0CFFB2B6864332B60E9E70F4DC3
:1003400029680F4804F0C6FB2B680E4A934203DD70
:10035000643B0A4A1360DEE7D0231B068022920426
:100360005A61D8E7034B01221A60074804F082FB68
:10037000D3E7C046A00B002064740010A40B00203B
:1003800050740010E90300005C74001010B50220E6
:1003900000F0B8F9032000F0B5F9042000F0B2F93C
:1003A000052000F0AFF9D0231B0608225A62043A58
:1003B0005A620C325A6210325A6210BD70B5002473
:1003C0003CE0A3003A4A9B58002B04D0D0231B06E4
:1003D00004225A6136E0D0231B0604229A6131E0E0
:1003E000D0231B061021996135E0D0231B06082578
:1003F0009D6139E0D0252D062026AE613DE0D0205C
:10040000000604258561002B43D0D0231B06102055
:100410005861002942D0D0231B0608215961002AC7
:1004200041D0D0231B0620225A61224B1868C117E5
:1004300001F0B0FA0134042C00DD00241E4B1868D2
:100440000128BED0A3001D4A9A58002AC8D0D02344
:100450001B0610215961A300194959580029C4D01D
:10046000D0231B0608255D61A300164D5B59002BA8
:10047000C0D0D0252D0620266E610028C3D1A00053
:100480000B4D40590028BAD0D02000060425456104
:10049000B9E7D0231B0610209861BAE7D0231B06CA
:1004A00008219961BBE7D0231B0620229A61BCE793
:1004B0006C740010A40B0020A00B00207C740010B2
:1004C0008C7400109C74001010B504F00FFBFFF743
:1004D0005DFF00220121062000F044F800220121E6
:1004E000072000F03FF800220121082000F03AF830
:1004F00000220121092000F035F80D4C23000122D3
:100500000821062000F0A2F823000122082107207C
:1005100000F09CF8230001220821082000F096F842
:10052000230001220821092000F090F8FFF746FF80
:100530000503001010B58300084A944663441C6804
:1005400040226240C02414408022520113431C60A8
:10055000C000034B9C466044416010BD04C0014094
:100560000040014080000B4B9C46604400290DD0A8
:100570000823002A0CD004221343026853400C22A3
:100580001340802252011043036070470023F0E7BC
:100590000022F1E704C0014070B50400D0231B061F
:1005A0001D68AA000C4BD358002B0AD0002803D09A
:1005B000AD00094BEC5070BD08490D2000F020FB48
:1005C000F6E70028F7D0AD00034BE85000220349BE
:1005D0000D2000F0FBF9EEE7301300206D0600104F
:1005E000072303409B00C00899403C308000014B2A
:1005F000C150704700400140F8B507000C001600DC
:100600001D00FFF7EDFFFB089B00ED1807203840A9
:1006100080008440002E04D080239B011D432C6069
:10062000F8BDC0239B011D432C60F9E710B5D02312
:100630001B061B68002B03D0024BFFF7DDFF10BD2C
:10064000014BFAE7304101400041014070B5140010
:100650001D00FFF7EBFF2800FFF79EFF002C00D1E5
:1006600070BD01210D2000F05DF9F9E7F0B5D64627
:100670004F464646C0B5D0231B061F68BA001D4B27
:10068000D3589846002F03D01B4B9946002623E0F1
:100690001A4B9946FAE724090135002C1BD0330088
:1006A0000833AB4217D90F231A0022409246234247
:1006B000F1D0BB00124A9A580123AB401342EAD151
:1006C00051462800FFF78CFF4346002BE3D05146EC
:1006D0002800C047DFE708361D2E06D8F308083388
:1006E0009B004A469C583500D7E7E0BCBA46B14665
:1006F000A846F0BD301300203041014000410140C8
:100700000818002010B501238340D02212069362FE
:1007100093610521FFF70EFF10BD0000034B1B681E
:1007200002201840431E9841C0B2704700C00640E6
:10073000EFF3108072B6034B1B68002BFBD0BFF3A6
:100740005F8F70472C0100D0BFF35F8F024B0022F8
:100750001A6080F3108870472C0100D0F8B50600AD
:100760000C001500FFF7E4FFE308F718F15C07221F
:100770002240012393400B4205D1DBB20B433B7077
:10078000FFF7E2FFF8BD2100280002F03BF8F0B5CA
:1007900083B00600019114001F00FFF7C9FF00E0BD
:1007A0000134BC420CD8E308F518F35C0721214062
:1007B00001228A401A42F3D1D2B21A432A7001E0D0
:1007C00001246442FFF7C0FF002C02DB200003B0CD
:1007D000F0BD019B002BF9D0089802F013F800003F
:1007E000002307E0054A9A189200BFF35F8F0021AB
:1007F000116001331F2BF5D97047C046400000340B
:10080000054A1078431CDBB21370172B02D9130072
:1008100010221A707047C046A80B002000B583B0A4
:100820000100044B00931F2318220348FFF7AFFF7A
:1008300003B000BDAC74001048130020074B9B6848
:10084000103080001950BFF35F8FBFF35F8F044BF0
:100850000021196082F310887047C04600ED00E067
:10086000240100D010B5091A081F0A4B9C466144A8
:10087000094A914208D8C30706D440104005400DEC
:10088000064B184380B210BD054B064AA32106480B
:1008900001F01EFFFC070000FE0F000000E0FFFF5C
:1008A000C87400103C770010F874001010B5091AD5
:1008B00004394C08090B08D14905490D064A114372
:1008C0000180064B2343438010BD054B054AAB21F5
:1008D000054801F0FDFEC04600F0FFFF00F8FFFFF5
:1008E0003C75001010770010F8740010012383404D
:1008F000034A10681840431E9841C0B27047C04672
:1009000000E100E0002904D0034B1860034B18609D
:100910007047034B1860FBE780E200E000E100E075
:1009200080E100E010B5012383401800FFF7EAFFE3
:1009300010BD000001238340014A13607047C04688
:1009400000E200E0024B9B6810308000C058704706
:1009500000ED00E010B5FFF7F5FF002805D0054BCE
:10096000C01A2F2803D8012010BD0020FCE700206A
:10097000FAE7C046AC0B002070B504000D00EFF3A1
:10098000108672B60C4B1B68002BFBD0BFF35F8F39
:100990002000FFF7D7FF094B984201D0A84205D1AC
:1009A000320029002000FFF749FF70BD044B054AC3
:1009B0008621054801F08CFE240100D0CD010010F5
:1009C0004C75001070770010F8740010F0B5DE461A
:1009D00057464E464546E0B589B08146019115001F
:1009E000EFF3108A72B6744B1B68002BFBD0BFF379
:1009F0005F8F724B0027DF57002F40DB7C00E4192C
:100A0000A4006F4824180622A2566C4B1A706D4B36
:100A10009A684B4610339B00D35898461E001B1A09
:100A20002F2B38D9684B98452FD105AE674B3380B3
:100A30007B009B46D8198000614B984640440230A9
:100A40006349FFF70FFF7080624BB380FF23B371E0
:100A5000F571019B07935F44BF0047440ECE0EC75C
:100A600001231C43A046524641464846FFF7E6FE96
:100A700009B0F0BCBB46B246A946A046F0BD564BF5
:100A8000564AD721564801F023FE564B534ADE21E1
:100A9000534801F01DFEC04340440C2102F0C6FF44
:100AA000002912D101239E43B34633000026DA7990
:100AB000AA4211D90621595600290CDB4A005218C6
:100AC00092001E003E4B9B18F1E7474B434AEA2138
:100AD000434801F0FDFD1E00002E3AD005AB434A0D
:100AE0001A80813A5A800623F3560293002B17DAB4
:100AF0003F4805AB9B469880029A9A71DD71019A36
:100B00000792301D2100FFF7ADFEB080B7717B006A
:100B1000DB199B002A4FFF185B4607CB07C7A2E7EC
:100B20007800C0198000264BC0180430321DB388ED
:100B3000D90A1C2907D15B05591502314900511802
:100B4000FFF790FED5E72B4B2B4AB121244801F04B
:100B5000BFFD05AE1D4B33807B000293D81980008A
:100B6000174A9046020042440392901C1849FFF72E
:100B700079FE7080039A101D5946FFF773FEB0800E
:100B80001E4B5A464146521A524153431B0DB371F4
:100B9000F571019A0792029B9C466744BF00474447
:100BA0000ECE0EC7114B5A461380813B5380012352
:100BB0001C43A04657E7C046240100D0551A002028
:100BC000AC0B002000ED00E0CD01001000A1FFFF04
:100BD000DC0B002001BDFFFF84750010587700106A
:100BE000F8740010AC750010D475001001480000B6
:100BF00001BD00004876001048770010AAAA000046
:100C0000F0B5CE46474680B583B006000D00EFF341
:100C1000108872B6564B1B68002BFBD0BFF35F8F5A
:100C2000544B9A6834001034A300D758524B9F425B
:100C300007D0AF4200D198E00197504BFB1A2F2B01
:100C400009D9424639003000FFF7F8FD03B0C0BCB7
:100C5000B946B046F0BD3000FFF748FE814600219E
:100C60003000FFF75FFEBFF35F8FEFF305810029D0
:100C700001D08C4211D10123019C9C430022A36826
:100C8000AB4212D00622A256002A0DDB53009B185D
:100C90009B002200394CE418F1E73621384B394AE1
:100CA000FF31394801F014FD2200AB4256D1062530
:100CB0006557002D38DB6B005B199A002F4B9B1892
:100CC0009A68A260DA79E27106229A56A2719B793B
:100CD0005BB2002B0FDA2D48A0806B005B199B00E4
:100CE000264AD3182A4A117899711570494630005E
:100CF000FFF718FEA5E7201D6B005B199B001F4A3C
:100D00009B181A1D9B88D90A1C2907D15B055B1506
:100D1000023359005118FFF7A5FDDDE71D4B1E4AB0
:100D2000B121194801F0D4FC002912D1002A0ED0BB
:100D3000FF239371194B9380154A1378A371184BB5
:100D40000E49641A644163431B0D1370CEE70A4FCA
:100D5000F2E7201D1349FFF7A9FDC7E76A21124BEF
:100D6000084AFF31084801F0B3FC034F69E7C04669
:100D7000240100D000ED00E0CD010010AC0B0020FC
:100D80006076001028770010F874001001BD000094
:100D9000551A0020487600104877001001BDFFFF6B
:100DA000AAAA0000E60B00209476001070B501217D
:100DB00001432E4BCB1A2F2B28D8EFF30583002BA2
:100DC0002BD0EFF3108C72B6294A1268002AFBD0A0
:100DD000BFF35F8F274A0400244D641B64416243C4
:100DE000120D54B2244A92689B00D2588A421BD0FA
:100DF0000022032A32D853009B189B001B49CB18B2
:100E00009B795BB2A3421FD00132F2E7C7211B4B93
:100E10001B4A49001B4801F05BFC92211A4B184AFF
:100E2000FF31184801F054FC134A92681749D15019
:100E3000174B1A7882711C70BFF35F8F0C4B002226
:100E40001A608CF3108870BD0D005300991889004A
:100E50006918FF268E710F4A8A80E9E7D1210E4B6F
:100E6000074A4900074801F033FCC046AC0B00209C
:100E7000240100D0AAAA000000ED00E09C7600103A
:100E8000F4760010F8740010C4760010CD01001044
:100E9000551A002001BDFFFFD07600100022044B40
:100EA00002E0044902C30132072AFAD97047C0465A
:100EB00000E400E08080808000B583B00100064B34
:100EC0000093052300220548FFF761FC002801DBA1
:100ED0001F23181A03B000BDD87600105B1A00203B
:100EE000024B9C4661448900016070474000003419
:100EF00010B50400FFF784FC01002000FFF7F0FFAD
:100F0000FF232371BFF35F8F10BD10B50400FFF7FF
:100F100077FC01002000FFF7E3FFFF23237100238C
:100F20006371BFF35F8F10BD034B9C466144890022
:100F30000160BFF35F8F70474000003410B50400BC
:100F40000120FFF76BFC01002000FFF7EDFF10BD53
:100F500070B505000C00080000F0CEFE0949200025
:100F600000F00EFEFFF74CFC074B9C4660448000EF
:100F700068602C75D0231B061B786B75A400034B8F
:100F8000E55070BD9512001040000034F8170020A5
:100F90000A4B1A68EFF3108172B61368002BFCD06D
:100FA000BFF35F8F054B1B68BFF35F8F00221A6092
:100FB00081F3108840BF0020002170471C1A0020D8
:100FC00010B5002922D003681B7B99421ED8174B0D
:100FD0009C466144090183689C4661440C684968E9
:100FE000002A19D003681B7B9A4215D883680F48E2
:100FF0008446624412019A18106853680200012066
:101000008B4201D80ED00020C0B210BD084B094A57
:101010003C21094801F05CFB054B064A3C2106488F
:1010200001F056FBA242EFD8EDE7C046FFFFFF0FED
:1010300018790010847B0010D878001010B50029B2
:101040001ED0037B99421BD84B005B18033B0468FE
:10105000A4466344002919D0002A1DD0914221D012
:10106000002A25D0047BA24222D8046850008018B0
:10107000033820188170197800291FD11A7010BD0B
:10108000104B114A6821114801F022FB104B114A04
:101090006F310E4801F01CFB0F4B0E4A70210B48BC
:1010A00001F016FB0D4B0B4A7121084801F010FBB3
:1010B000044B054A6821054801F00AFB41701A708B
:1010C000DDE7C0463C790010F07B00105879001035
:1010D000AC790010CC7B0010B8790010C4790010F6
:1010E00070B506000D001400002914D0002A14D099
:1010F000806873689847002806D0220029003000D5
:10110000FFF79CFF280007E02A0021003000FFF7CE
:1011100095FF200000E0100070BD0800FCE7000013
:10112000F0B583B00500009201930AAB1C780BABBD
:101130001F78002C26D003685A7B944207D10123E4
:10114000002B19D1002C3BD1200003B0F0BD002CA6
:101150000CD01A7B944209D81A6863001B19033B10
:10116000D3189B78002BEBD00123E9E73E4B3F4A95
:1011700068213F4801F0ACFA3E4B3F4A67213F48A7
:1011800001F0A6FA03689C7B002CDBD012D01A7BFE
:1011900094420FD862001219033A19688C466244CF
:1011A00051789973002900D1D9730023937053703B
:1011B0001370C7E72C4B2D4A68212D4801F088FA9F
:1011C000002C3AD02B681B7B9C4236D82C4BE31862
:1011D0001B01AA6894466344009A1A60019A5A60F7
:1011E000089A9A60099ADA602E68002C2BD030D0C9
:1011F000337B9C422DD863001B19033B3268944615
:10120000634400229A705A701A70717B2200300079
:10121000FFF766FF7073844200D095E7287D009A3F
:10122000019B00F0F5FC061E01D0002F17D00C9B8F
:10123000002B00D188E71E7086E7124B124A3C2132
:101240000E4801F045FA114B114AA521084801F05A
:101250003FFA054B054A6821054801F039FA28682C
:10126000210000F00DFFE2E73C790010F07B001058
:1012700058790010DC790010FC7B0010D878001041
:10128000FFFFFF0F18790010847B0010D478001046
:10129000E07B0010F0B5DE4657464E464546E0B5C9
:1012A0008BB00990002308938200B54BD6583700C5
:1012B00052E0B44BB44A3F21B44801F009FAB44BB0
:1012C000B44A3C21B44801F003FA002901D10028B6
:1012D00069D10021404600F0C9FEA04219D12A6818
:1012E0006B6806920793AB689846EB689A4643464C
:1012F000002B14D0002C18D03B681B7B9C4214D8C8
:10130000631EFA68D35C08931B02184338610020FF
:1013100015E0A24BA24A8E219F4801F0D9F9A14BBA
:101320009F4A92219C4801F0D3F9994B9E4A412152
:10133000994801F0CDF900239A46984600207B6831
:10134000BFF35F8F00221A6086F310884346002B9C
:1013500032D1002800D10CE100F0F2FB02000B1E9C
:10136000A7DB00200021069007917868EFF3108634
:1013700072B601680029FCD0BFF35F8F39688846D8
:101380004C7B002CD7D09AD0097B8C4297D88749C8
:1013900065182D01B9688C46654428686968801A0B
:1013A0009941002991DD2A686B68099800F030FCAA
:1013B00000239A469846C2E7089B1B02234399469E
:1013C00051461800C04705000E007A68EFF3108BF5
:1013D00072B6136859424B41D9B2002BF9D1BFF311
:1013E0005F8F002E1EDB002E46DD3B69002B47D0B1
:1013F0004B456DD100F0A4FB02000B1E6EDB5219B1
:101400007341002B70DB002B72DB00210491013152
:101410000391029451460191414600913800FFF733
:101420007FFE4CE03B69002BDDD04B4514D1069A82
:10143000079B521BB341002B14DB002B16DB002152
:10144000049101310391029451460191414600916A
:101450003800FFF765FE32E0554B514AA1214E4856
:1014600001F036F901225242524BE6E7454B464A1B
:101470003F21464801F02CF9002E01D1002DB4D1B6
:101480003B68002C50D05A7B944237D1012100296F
:101490004AD1DA7B002A4DD19A7B002A03D1DA7B2C
:1014A000002A5AD19C73DC73002C5CD03B681B7BF8
:1014B0009C4258D8FA68013C135D01331355002350
:1014C0003B617A68BFF35F8F13608BF3108843E74B
:1014D000374B334AA421304801F0FAF8294B2A4A05
:1014E0003F212A4801F0F4F801225242314B8AE7A9
:1014F000244B254A3F21254801F0EAF8002C0DD065
:101500001A7B94420AD862001219033A186884467A
:1015100062449278002ABAD00121B8E7264B274AC4
:101520006821274801F0D4F8264B274AF6212448A1
:1015300001F0CEF8002A0AD0197B8A4207D8510060
:101540008A18033A19688C4662445470A4E71A4B0F
:101550001A4A68211A4801F0BBF81C4B1A4AFB21B1
:10156000174801F0B5F80A4B0F4A41210A4801F02B
:10157000AFF80BB0F0BCBB46B246A946A046F0BDE2
:10158000F8170020E8770010507B00100478001056
:1015900018790010847B0010D8780010047A0010AD
:1015A000687B00101C7A0010A87B0010FFFFFF0F63
:1015B000287A0010FFFFFF7F3C790010F07B0010BD
:1015C00058790010647A0010BC7B0010887A0010F3
:1015D00010B50C4B5B68002B04D00A210A48FFF7BA
:1015E0007FFC10BD074C2300084A1021206800F042
:1015F0004DFC032000F098FA03212000FFF7A8FC1F
:10160000EBE7C046F40B00201C1A0020C10F0010AD
:1016100010B5064B5B68002B01D0044810BD044B8D
:10162000044A5E21044801F053F8C046F40B002040
:101630009C7A0010907B0010D8780010F0B5DE4640
:1016400057464E464546E0B58BB0804616001F0013
:10165000149B9A46159B994616AB1B789B461F23F5
:1016600002AA9446634400221A702BE0002809D095
:1016700042461268127B904204D8421E4146C96815
:101680008A5C41E0404B414A4121414801F020F849
:1016900007984CE0361BAF41002F07DB002F11DA13
:1016A0003C4B3D4A3F213D4801F012F8012676426D
:1016B0003B4FF3E7374B384A3F21384801F008F8F1
:1016C000002F4FDB43465A68EFF3108472B613685D
:1016D00059424B41D9B20791002BF8D1BFF35F8F2C
:1016E0001F3302AA94466344049300230393029396
:1016F0004B4601935346009332003B004046FFF7B0
:101700000FFD031EB2D1020041464968BFF35F8F4F
:1017100000250D6084F31088002B29D01F2302A917
:101720008C4663441B78002BB2D112021043002B6D
:1017300020D05B46002B1DD04946D04704000D0049
:1017400003000B431DD00029A4DB00F0F9F90600CB
:101750000F1EAFDB36196F41002FB1DA012676423A
:101760000F4FADE70B4B0C4A3F210C4800F0B0FF88
:10177000012040420BB0F0BCBB46B246A946A04691
:10178000F0BD0798F6E7C04618790010A87B001056
:10179000D8780010E8770010507B00100478001013
:1017A000FFFFFF7FF8B504004268EFF3108572B6C3
:1017B000136858424341D8B2002BF9D1BFF35F8F71
:1017C000CBB22268567BB3421BD10120002848D0FF
:1017D000206988422BD0090AC9B2002B2ED020687C
:1017E000007B83422AD8581EE668305C88422BD0A2
:1017F00000206368BFF35F8F00221A6085F31088B2
:10180000F8BD002B0DD0167BB3420AD85E00F61847
:10181000033E1768BC466644B678002ED6D0012039
:10182000D4E7134B134A6821134800F051FF952168
:10183000124B134A4900134800F04AFF124B134A57
:101840004121104800F044FF1900100000F018FC7E
:101850000028CED132210E4B094AFF31094800F051
:1018600037FF23698B42C4D100232361C1E7C046FF
:101870003C790010F07B001058790010C07A0010FD
:10188000387B0010D878001018790010A87B001061
:10189000E47A0010407D7047F0B587B006000F0075
:1018A000EFF30583002B1FD106246442E517A4192A
:1018B0007D418D4202D803D1844201D90024002504
:1018C000002D14DB0494059500F03AF902000B1E7C
:1018D00013DBA41A9D41002D17DC14D03000390011
:1018E00000F03AF907B0F0BD234800F08BFF234B1E
:1018F000234A3F21234800F0EBFE204B204A3F21A2
:10190000204800F0E5FE002CE8D0FFF781FE002320
:10191000029301931C4B0093049A059BFFF78EFEE4
:10192000002818DADAE7002300E00023002BD5D1E5
:10193000164B1A68EFF3108172B61368002BFCD0B7
:10194000BFF35F8F114B1B68BFF35F8F00221A60DC
:1019500081F3108820BF0499059A0D4B5B6A9A4267
:10196000E3D80B48806A884203D29A42DBD0012335
:10197000DCE70123DAE7C046E87A0010E8770010D8
:10198000507B001004780010910F00101C1A0020EA
:101990000040054070B504000D0000F0D1F80200D1
:1019A0000B1E0ADB200029008018594100290ADBA0
:1019B00000290CDBFFF770FF70BD084B084A3F2180
:1019C000084800F085FE012040420749F0E7034B3C
:1019D000034A3F21034800F07BFEC046E877001031
:1019E000507B001004780010FFFFFF7F70B584B0BB
:1019F00005000C00EFF30583002B1ED1FFF708FE56
:101A0000002302930193224B00932A002300FFF747
:101A100015FE061E23DD20BFFFF7FAFD3100FFF79C
:101A2000C1FE1C4B5B6A9C422DD81A4A926AAA429C
:101A30002CD29C4225D0012026E0164B5B6A9942AD
:101A400009D8144A926A824207D2994201D00120F1
:101A50001AE0002018E0002016E0012014E00D4BF1
:101A60005B6A9C4209D80B4A926AAA4207D29C42FE
:101A700001D0012008E0002006E0002004E0012061
:101A800002E0002000E0002004B070BD0120FBE770
:101A9000910F00100040054070B5EFF3058010383D
:101AA000EFF3108C72B61A4B1B68002BFBD0BFF300
:101AB0005F8F01221300834016494B6316490B6068
:101AC000164909780C00C440224214D0114A546AC5
:101AD0008200134D5259944206D38200114C125980
:101AE00099430E4B197007E00A4A031D9B00995851
:101AF0009950002200E00022BFF35F8F044B0021C9
:101B000019608CF31088002A00D0904770BDC04641
:101B1000280100D0004005403C7005405A1A0020C2
:101B2000281A00202012002010B50100024A0348A4
:101B3000FEF714FE10BDC046147C0010541A00209D
:101B4000044B5B6A034A906A1900536A9942F9D1BF
:101B50007047C04600400540084B5B6A01E0074BF8
:101B60005B6A8B42FBD301E0044B5B6A8B4203D17F
:101B7000024B9B6A8342F7D37047C0460040054042
:101B800070B504000D00EFF3108672B61B4B1B6896
:101B9000002BFBD0BFF35F8F002D1CD02000FEF781
:101BA000D1FE174B83420BD019002000FEF7E4FE54
:101BB00001212000FEF7B6FE0123A340114A136065
:101BC000A400114BE550BFF35F8F0C4B00221A604D
:101BD00086F3108870BDA2000B4B0021D15001226A
:101BE000A2400A490B7893430B7005492000FFF788
:101BF00007F800212000FEF795FEE4E7280100D059
:101C0000991A001038600540201200205A1A00204E
:101C1000F0B5DE4600B584B00400150001921E0048
:101C20000293FFF78DFF03958E4202D84ED1854275
:101C30004CD9EFF3108B72B6274B1B68002BFBD0EF
:101C4000BFF35F8F254A17780125A540EBB23B43D0
:101C50001370234B5D63221D92000199D150A200A5
:101C60002049029850501B6A2B4212D11C4B1B6C0E
:101C70002B4208D00020BFF35F8F174B00221A6061
:101C80008BF3108823E0184B184AC521184800F040
:101C90001FFDFFF755FF8E4214D802D1039B8342EC
:101CA00010D80E4B1B78BB420ED00D4B1D625D63EE
:101CB0001F2004400123A3400E4A1360074B1F70EE
:101CC0001E38D8E70020D6E70120D4E7012004B071
:101CD00080BCBB46F0BDC046280100D05A1A002087
:101CE00000400540281A0020387C0010A47C001019
:101CF0005C7C001080E200E0EFF3108C72B60B4BBE
:101D00001B68002BFBD0BFF35F8F01238340084A81
:101D1000136208490A789A430A70BFF35F8F034B36
:101D200000221A608CF310887047C046280100D04A
:101D3000004005405A1A002010B500291ED0037B30
:101D400099421BD84B005B18033B0468A4466344CC
:101D5000002919D0002A1DD0914221D0002A25D077
:101D6000047BA24222D8046850008018033820184F
:101D70008170197800291FD11A7010BD104B114ABB
:101D80006821114800F0A4FC104B114A6F310E4835
:101D900000F09EFC0F4B0E4A70210B4800F098FC9F
:101DA0000D4B0B4A7121084800F092FC044B054A88
:101DB0006821054800F08CFC41701A70DDE7C046D0
:101DC0003C790010B47D001058790010AC790010F7
:101DD000A07D0010B8790010C479001070B506001D
:101DE0000D001400002914D0002A14D080687368F4
:101DF0009847002806D0220029003000FFF79CFFFA
:101E0000280007E02A0021003000FFF795FF20009E
:101E100000E0100070BD0800FCE7000010B50023D2
:101E2000437301338373037BC3730123027B9A42A1
:101E300014D9002B0CD0027B934209D85A00D21837
:101E4000033A01688C4662440133DBB25370EDE71C
:101E50000B4B0C4A68210C4800F03AFC002A09D0D0
:101E6000924207D8016853009A18033A8A1800234F
:101E7000537010BD024B034A6821034800F028FC50
:101E80003C790010B47D00105879001010B5017332
:101E900042608360FFF7C2FF10BD000070B5040010
:101EA000081E00D170BD002934D0237B994231D85F
:101EB0004B005B18033B2268944663445A78002A1F
:101EC000F0D02DD0237B9A422AD853009B18033B95
:101ED00021688C4663445D7800215970002825D024
:101EE000237B984222D843001B18033B21688C4671
:101EF00063440021597001002000FFF76FFF0600C6
:101F000029002000FFF7CAFF020031002000FFF780
:101F100065FFC7E7084B094A6821094800F0D8FB6C
:101F2000054B064A6821064800F0D2FB024B034AE3
:101F30006821034800F0CCFB3C790010B47D001010
:101F40005879001070B505000C00160000292FD03C
:101F500034D0037B994231D84B005B18033B0268B5
:101F6000944663445A78002A2ED19A78002A31D1B7
:101F70001978FFF793FF0300002E0AD0EA7B002AAE
:101F80002ED1AA7B002A03D1EA7B002A3BD1AC7375
:101F9000EC73002B3DD1002C4FD02B7B9C424CD8B6
:101FA0002B6861000C19033C1C190023637070BD81
:101FB000254B264A3821264800F08AFB254B264A25
:101FC0006821264800F084FB254B204A3A2120480E
:101FD00000F07EFB234B1D4A3B211D4800F078FB9F
:101FE000002A0AD0297B8A4207D851008A18033A6E
:101FF00029688C4662445470C3E7164B164A682120
:10200000164800F065FB184B104A4221104800F0BA
:102010005FFB002B0BD02A7B934208D843001B1890
:10202000033B2A689446634400229A70B3E7094B45
:10203000094A6821094800F04BFB064B064A682113
:10204000064800F045FBC046C07C00108C7D0010A7
:10205000C87C00103C790010B47D00105879001045
:10206000087D0010307D0010887A001070B50400E3
:102070000A00457B2900FFF765FF6073280070BDEB
:1020800070B50400002967D0437B8B420ED0002935
:1020900011D0037B99420ED84B005B18033B0268BA
:1020A000D0188378002B0CD1002056E00121FFF7D7
:1020B000DDFF012051E0294B294A6821294800F021
:1020C00007FB002B20D0227B93421DD85A00D31847
:1020D000033B2268D2182568EB5C8B421AD0002B98
:1020E0001BD0227B934218D85A00D318033B226896
:1020F000D21853788B4216D0002BF0D11A4B1B4AC2
:102100006B211B4800F0E4FA144B154A682115486E
:1021100000F0DEFA4378137007E0104B104A682194
:10212000104800F0D5FA4378537000238370437051
:1021300001222000FFF706FF0200617B814205D0EB
:102140002000FFF74BFE6073012006E0094B074AB1
:102150007121074800F0BCFA002070BD3C790010E6
:10216000B47D001058790010D0760010747D0010F6
:10217000C87C0010547D001070B504000D000620CE
:1021800000F07EF9C000290001F050FCC60908D01B
:102190000E4B9E4217D87F23184001303500460869
:1021A00000E001256562A6622C3480208001044392
:1021B00000232360062000F063F98000A90189193B
:1021C00001F034FC70BD0026014DEBE7FEFF00007E
:1021D000FFFF0000002909D00A22064B9C466044FC
:1021E000434258414000044BC25270478022520083
:1021F000F3E7C0460080FCBF381A002070B5050028
:102200000C00062000F03CF9002829D0164B9D4216
:1022100027D08022D203154B1A60154B1A60154B3C
:102220009B6811009943FAD100212800FFF7D2FFE3
:1022300021002800FFF7A0FF2C002C34E96A60225F
:102240004A406E21114080225201224311600A4B04
:102250002B6380239B01234310221A600323AB646A
:1022600070BD80221204D6E70080034000E00040E9
:1022700000F0004000C0004001030000F8B5DE4659
:1022800057464E464546E0B505000F0092460A9A6D
:1022900093424ED31A0E91461E020A9A0023300032
:1022A000494601F001FC80466C006419A4002F4BE4
:1022B0009C4664446368834200D260602B1FDBB29B
:1022C0009B46012B3BD9C0239B0123438022120153
:1022D0001A60AB00264A9958002905D0506901F0D0
:1022E000A5FB01300138FDD153465A0123685A40FD
:1022F000E0231A4080235B0123431A605A46012AD7
:1023000028D980239B012343802212011A6043466F
:102310006360424600233000494601F0C5FBAD0032
:10232000134B58510120F0BCBB46B246A946A0460B
:10233000F8BD104B104A2D21104800F0C9F9012FAB
:10234000C1D1C0239B01234303221A60A368DB078A
:10235000FCD5C9E72168794003220A401A60A268C7
:102360000123BB401342FAD0CBE7C04600800040B7
:102370004C130020C07D0010207E0010D47D001082
:1023800030B583B00C2000F017F9FEF7C7F900282C
:102390000DD0002304E099002D4A2E4888500133C7
:1023A000092BF8D92A4B2C4A5A6203B030BD2B4B6B
:1023B00000229A6700F072F9294B01221A60274B1C
:1023C0005B6C012BFBD1274B03221A60234B9B6BC9
:1023D000012BFBD1013300930433234A012123480D
:1023E00000F054F805230093214A0121214800F010
:1023F0004DF8214B0093002202210420FFF73EFFFD
:102400001E4D00952B00002201210520FFF736FF0D
:10241000104C00942300002200210720FFF72EFF1C
:1024200000942300002200210820FFF727FF0A4B19
:1024300000932300002200210920FFF71FFF0095D1
:102440002B00002200210620FFF718FFADE7C04651
:102450004C130020006CDC021BB700000080004021
:102460003CB0004030B00040002F6859008002406E
:10247000008C864700C00240001BB700405973071C
:102480008000014BC05870474C130020F0B5C64681
:1024900000B504000D00170098460C2001F0C6FAA4
:1024A0000600394BFA18394B9A4241D843011B1A9E
:1024B0009901C91AC90009188901380001F0B6FA52
:1024C0000200103A98235B009A4237D84346013BFA
:1024D000062B39D8069B013B062B35D83F09B7425E
:1024E00038D343461E04069B1A0316432368002B69
:1024F00036DB274B9C4244D080225201254B1A6088
:10250000254B1A60254B9B6811009943FAD1256031
:10251000A060231DC02292011A4321231360236867
:10252000002BFCDAE6600823136080BCB846F0BDDF
:102530001B4B1C4A11211C4800F0CAF81B4B194ABE
:102540001921194800F0C4F8194B164A1C211648E5
:1025500000F0BEF8174B134A2321134800F0B8F8D7
:1025600022683F231340AB42C3D1A3681B051B0D58
:102570008342BED1E368EE22D2021340B342B8D107
:10258000D3E780229201B9E780E84BD380F8A932E3
:1025900000C0024000E0004000F0004000C00040E9
:1025A000307E0010587F0010907E0010D47E001006
:1025B000F07E00103C7F001080239B000343014A03
:1025C000D362704700800540024B1A68024B5A6084
:1025D0007047C046E81700200080054010B5020093
:1025E000164B8020C0051860154B1648186000294E
:1025F0000AD0154BE021C9041960002A09D1124BF9
:10260000802212061A6010BD0C4BE021C90419602B
:10261000F3E753019B1A9800801800010B4B1860D8
:1026200080235B04984202D3084B094A1A60FFF7E3
:10263000CBFF054B8022D2051A60E4E700B00540CD
:1026400008200140FCFF010000A00540E817002021
:10265000FFFFFF0010B5030010000C4A8024E405C2
:102660001460002B0DD001221343094A094CD46198
:10267000094C5C401462516293620021FFF7AEFF87
:1026800010BD034B0022DA61F7E7C04600B00540F9
:1026900000800540D3C007B02D3FF84F064BAA225B
:1026A00012011A602F22DA60044B054A1A60024BAD
:1026B0005B68002BFBDA704700400240006002407C
:1026C00000B0FA0000BEFDE710B5FFF7FBFF000009
:1026D00010B582B00C001900002A0CD0084B002A5B
:1026E0000BD00192009323000200064802F0F2F999
:1026F0000120FFF7E7FF044BF1E7034AF1E7C0468B
:10270000647F0010747F0010707F001070B52B4B39
:102710002B4A1A602B4B2C4A1A602C4B9A682A4B76
:102720009343FAD12A4C01E008CC9847294B9C42AC
:10273000FAD3FFF725FE234B274A1A60234B9B68E9
:10274000DB43DB01FAD1254B40229A675A671A67AF
:10275000DA66234C09E0234B234A86212348FFF7FE
:10276000B7FF2000FEF7C4FB0834214B9C4209D27E
:102770002368002BF5D0012BEDD12000FEF7C5FB1F
:102780000834F2E71B4CA1681B4DC022280002F060
:1027900049F8A560EFF30583002B00D000BEFEF7DB
:1027A0001FF8FEF77BFBFEF713FF144C01E008CC8B
:1027B0009847134B9C42FAD370BDC04600E00040DE
:1027C000BFCDFBFE00F00040FE7F3C0000C000409B
:1027D000A00C0020B00C0020FFFFFF0100F0014022
:1027E000980C0020A47F001020800010C47F0010EF
:1027F000A00C002000ED00E000000020B00C002044
:10280000B80C00200FB400B583B0084802F032F9CC
:10281000049B002B07D005A90191180002F03AF99A
:10282000034802F027F90120FFF74CFF0C8000104D
:102830001C800010704710B5002802D00B68496852
:10284000984710BD0100002007E083001B185B00C3
:10285000501C08601078C01830380A681378303B74
:10286000DBB2092BF1D97047F0B5DE4657464E462C
:102870004546E0B583B093461F000C9B9A460D9CDD
:102880000E9B99460F9B9B0703D0B8460F0006008E
:1028900022E00192A34688464E46B9460700B4425C
:1028A00007D2551C4B4641462020B84701342A0028
:1028B000F5E73D004F465C46019B9B46B1464646C8
:1028C000B84637002E0007E0013C551C5346185D02
:1028D00043463900B0472A00002CF5D135003E00B0
:1028E00047460F9B9B0707D4100003B0F0BCBB46C4
:1028F000B246A946A046F0BDB0464E46B9462F00A6
:102900005D46531BB342EFD2541C4B464146202038
:10291000B8472200F5E7F0B5CE46474680B585B00A
:10292000944698460C9D0D9C0EAB1B789946109AC8
:10293000119B129EB7071CD4002B0CD0F7070AD5A9
:102940004F46002F02D10C37374204D0013B02E042
:1029500030272F550134944201D21F2CF8D9F707A4
:1029600007D59C4205D21F2C03D830272F550134A0
:10297000F5E7F70615D5770505D4002C03D094426A
:1029800024D09C4222D00F9A102A2BD00F9A102AC2
:1029900030D00F9A022A35D01F2C02D830222A5567
:1029A00001341F2C05D84A46002A31D02D222A5541
:1029B0000134039602930194009543466246FFF763
:1029C00053FF05B0C0BCB946B046F0BD621E012C35
:1029D00006D00F9F102F01D01400D4E7023CD2E79D
:1029E0001400D0E7B206D1D41F2CCFD878222A55B4
:1029F0000134D1E7B206CCD51F2CCAD858222A55AB
:102A00000134C9E71F2CC7D860322A550134C3E707
:102A1000720703D52B222A550134CAE73207C8D5DD
:102A200020222A550134C4E7F0B5DE4657464E460B
:102A30004546E0B593B081468A46089209931CAB9F
:102A400010CB1B789B461E9D219B9846002C03D1E2
:102A5000102342469A4390468023DB0046461E40A0
:102A600042461A4212D0002C22D000260EE030330B
:102A7000D9B2771C0AAB99552900200000F0D6FF87
:102A8000AC4216D31F2F14D83E00040029002000AA
:102A900000F0CCFFCBB2092BE9D94246920605D50E
:102AA0004121C918C9B20A39C9B2E2E76121F8E780
:102AB000270043460693209B05931F9B0493039591
:102AC0005B46029301970AAB0093099B089A514613
:102AD0004846FFF720FF13B0F0BCBB46B246A946FC
:102AE000A046F0BDF0B5DE4657464E464546E0B539
:102AF00095B0089009910A920B931E9E1F9C20ABE3
:102B00001B789B46229B9946239D269B9A46330021
:102B1000234303D1103352469A4392468023DB006D
:102B200057461F4052461A4219D0330023432DD036
:102B3000002714E03033DAB27B1C98460CABDA5530
:102B40004A462B003000210000F0AEFFA5421FD8FE
:102B500019D043461F2B1BD8474606000C004A4697
:102B60002B003000210000F09FFFD3B2092BE1D9E8
:102B70005246920605D54122D218D2B20A3AD2B2B2
:102B8000DAE76122F8E7B145E3D901E0002398468E
:102B900053460693259B0593249B04934B4603932E
:102BA0005B460293434601930CAB00930B9B0A9A3E
:102BB00009990898FFF7AFFE15B0F0BCBB46B246C6
:102BC000A946A046F0BD0000F0B5DE4657464E4689
:102BD0004546E0B591B083468A460C9298461A9CC9
:102BE00008941B9D099522002B002000290001F06C
:102BF000E6F9002800D0E5E001225242D74B200040
:102C0000290001F0D7F9002800D0DBE00122524270
:102C1000D34B2000290001F0B7F9002800D0D1E003
:102C200000220023089E3000099D290001F0ACF924
:102C3000002800D0DDE008980999069007918023CC
:102C4000DB001E9A1A400D921E9A1A4201D10623E9
:102C50001C930698079904000D000A000600024321
:102C600000D1D1E0080D4005400DBE4CA4466044A3
:102C70000A03120BBC4B13431F0001F0B3F9BB4A0C
:102C8000BB4B01F03EF9BB4ABB4B01F013F904000A
:102C90000D000022B94B3000390001F002F9B84AAA
:102CA000B84B01F02EF902000B002000290001F0C2
:102CB00001F901F0AFF9814601F094F904000D002B
:102CC000B14AB24B01F01DF90022B14B01F0F2F80C
:102CD00001F0A0F90600AF4AAF4B2000290001F037
:102CE00010F904000D00300001F07CF9AB4AAC4B48
:102CF00001F007F902000B002000290001F0D1F8D3
:102D000004000D0002000B0001F0FBF80A900B918B
:102D1000A44BF31800261F0522002B0020002900D9
:102D200001F0C8F80E900F9122002B0000208021A6
:102D3000C90501F0B6F804000D0000229A4B0A986C
:102D40000B9901F0C0F80022984B01F0B3F8020093
:102D50000B000A980B9901F0B6F80022944B01F091
:102D6000A9F802000B000A980B9901F0ACF80200D8
:102D70000B002000290001F09DF802000B000E98C6
:102D80000F9901F0A0F80022774B01F093F8320080
:102D90003B0001F0B6F806000F0004000D00069A93
:102DA000079B01F007F9002830D001235B429C46C5
:102DB000E14400227D4B3000390001F084F804002A
:102DC0000D0023E01E9B04931D9B03931C9B029309
:102DD000089A099B0092019343460C9A5146584623
:102DE00000F0FCF811B0F0BCBB46B246A946A046C4
:102DF000F0BD0023002406930794069680231B064B
:102E00009C46654407951AE7002399464B46633371
:102E1000C62B1ED804261E9B1B0526D52B0023433C
:102E20000FD0644A644B0698079901F0BBF800285C
:102E300079D00022614B0698079901F0A5F8002887
:102E400071D01C9B4B4506DD4A46981A431E1C93C5
:102E500003E00526DFE700231C938023DB001E9A96
:102E60001A431E920026002399461D9B9E4264D25F
:102E70009F1B02231E9A1A400A921E9A134202D0E6
:102E8000002E00D000274B46002B07D022002B003D
:102E90000698079901F017F8069007910022002381
:102EA0000898099901F070F8002848D1444B1E9AFF
:102EB0001340049303971C9B0293069B079C00936B
:102EC000019443460C9A5146584600F087F8002E6C
:102ED00000D187E71E9B9B063DD54525441C4346F4
:102EE000020051462800D8474B46DA179B1853403A
:102EF00005220592013E0496002203920A320292B4
:102F00004A46D00F0190009343462200514658464E
:102F1000FFF78AFD0A9B002B00D163E702005F46A2
:102F20000C9E1D9D54E01C9B002B9ED00D9B002BE6
:102F30009BD01C9B013B1C9397E7002799E7069CBD
:102F4000079D2200290080200006844661440B0072
:102F500006920793AAE76525C0E7C046FFFFEF7F0B
:102F6000FFFFEFFF01FCFFFF0000F03FFB799F50E8
:102F70001344D33FB3C8608B288AC63F0000F83F94
:102F800061436F63A787D23F71A379094F930A40CA
:102F90000000E03F1655B5BBB16B0240EF39FAFEB9
:102FA000422EE63FFF03000000002C4000002440BA
:102FB000000018402D431CEBE2361A3F80842E415E
:102FC000FFF7FFFF541C434651462020B84722001C
:102FD000931BAB42F6D3100004E7C046F0B5DE46C3
:102FE00057464E464546E0B595B006900791934644
:102FF0009946209F1E9A1F9B1000190000F0DFFFCA
:10300000002831D101225242BF4B1E981F9900F077
:10301000BBFF002837D101225242BC4B1E981F999A
:1030200000F0C8FF00283DD10022B94B1E981F991F
:1030300000F0C0FF002850D10022B64B1E981F9907
:1030400000F0A2FF002848D1002200231E981F99FB
:1030500000F09AFF002850D100239846229B5B0580
:1030600000D4B6E0002458E0229B0393219B0293F6
:1030700003230193A84B00934B465A4607990698A1
:10308000FFF7F2FB0EE1229B0393219B02930423A3
:103090000193A24B00934B465A4607990698FFF7B7
:1030A000E3FBFFE00423229A1A4022990B4210D03E
:1030B0009B4B002A0FD0042222990391219902915F
:1030C000019200934B465A4607990698FFF7CCFBAE
:1030D000E8E0944BEDE70322EEE7229B0493219B6B
:1030E000039302971E9B1F9C009301944B465A46E4
:1030F00007990698FFF768FDD4E01E9A1F9B0020F1
:10310000002100F0CEFE1E901F9101239846A5E7F6
:103110000CAB30221A55013F01341F2C01D8092F66
:10312000F6D81E981F9900F075FF050000F05AFFB1
:1031300002000B001E981F9900F0B3FEFA007A4BB4
:103140009B181A685B680A920B9300F0DAFE0890ED
:10315000099100F083FF060000F040FF02000B0021
:103160000898099900F09DFE0890099100226F4B84
:1031700000F020FF00282ED00136300000F02EFF96
:1031800002000B000A980B9900F004FF002801D000
:1031900001350026002F2CD1280000F023FF02006B
:1031A0000B001E981F9900F07CFE06000F00002205
:1031B0005E4B00F0E9FE002846D100225B4B300058
:1031C000390000F0F7FE00283ED1EB073CD5013571
:1031D0003AE0062746E70022544B0898099900F088
:1031E000D3FE0028D6D1002E01D0F307D2D5013668
:1031F000D0E7AA461F2C11D8013F0A21300000F069
:1032000015FC651C30310CAB19550A21300000F05B
:103210000DFC092E0ED906002C00EBE755461F2C9D
:103220000CD87B1E002F09D00CAA302111551F008D
:103230000134F4E72B0055461C00F0E71F2C03D89F
:103240000CAB2E221A5501341F2C10D80A2128004D
:1032500000F0C4FB661C30310CAB19550A21280064
:1032600000F0BCFB051E01D03400EDE73400032361
:10327000229A1340012B1CD01F2C06D84346002B4A
:1032800032D00CAB2D221A550134229B0393219B83
:10329000029301940CAB00934B465A46079906984B
:1032A000FFF7E2FA15B0F0BCBB46B246A946A0460D
:1032B000F0BD219B002B13D04346002B02D10C33D1
:1032C00013420FD0219B013B2193190003E00CAB6B
:1032D00030221A5501348C42CED21F2CF7D9CBE7BD
:1032E0002199F8E72199F6E7229B5B0704D50CABFF
:1032F0002B221A550134C8E7229B1B07C5D50CABFE
:1033000020221A550134C0E7FFFFEFFFFFFFEF7FD8
:1033100065CDCD4165CDCDC13C8000104080001011
:103320003480001030800010288200100000E03F40
:10333000F0B5DE4657464E464546E0B593B0824668
:103340008B4690461193002900D1EBE200275546A9
:10335000119B1878002800D1E7E2252809D07C1CB1
:1033600043463A005946A847119B01331193270061
:10337000EEE7013311930024119A11780B00203BE2
:10338000D8B2102803D88300D048C3589F460B00FA
:10339000303BDBB2092B2CD92A292FD000230A93EA
:1033A000119B1A782E2A39D000239A46119A137845
:1033B000683BD9B2122976D88B00C549CB589F46B5
:1033C00001231C4301321192D6E702231C43013230
:1033D0001192D1E704231C4301321192CCE7082358
:1033E0001C4301321192C7E710231C430132119292
:1033F000C2E711A8FFF726FA0A90D1E71C9B1A1D15
:103400001C921868002804DB0A90119B0133119369
:10341000C6E702231C4343420A93F6E78022D20008
:1034200014435A1C11925A781300303BDBB2092B1B
:1034300004D92A2A07D000239A46B7E711A8FFF734
:1034400001FA8246B2E71C9B1A1D1C9218680028DC
:1034500004DB8246119B01331193A7E70020F8E7B4
:1034600080235B002343511C119152786C2A01D0B8
:103470001C0018E0C0239B001C430131119112E095
:1034800080232343511C11915278682A01D01C00DB
:1034900009E0C0231C430131119104E080235B004B
:1034A0001C4301321192119B18780300253BDAB2BC
:1034B000532A00D92CE29300864AD3589F46802392
:1034C0009B001C4301321192EDE780235B001C43FB
:1034D00001321192E7E7782809D0582838D06F28B0
:1034E00038D0622838D010239C430A2600E01026EA
:1034F000582833D0692803D0642801D00C22944383
:10350000630501D50122944369282AD0642828D074
:10351000A30500D59FE0E30500D5B8E0630600D41D
:10352000CAE01C9A111D1C911168FF220A400594E3
:103530000A9B04935346039302960023019300923F
:1035400043463A0059462800FFF76EFA070027E085
:103550001026CDE70826CBE70226C9E72022144330
:10356000C8E7A30520D4E30550D4630666D51C9AAA
:10357000111D1C911168FF220A40D317D118594020
:1035800005940A9B0493534603930296D20F01922B
:10359000009143463A0059462800FFF745FA0700D4
:1035A000119B01331193D3E61C9BDA1D07218A433B
:1035B000110008311C91116853689C46DB170C936D
:1035C0000D930C9A0D9B100048400E90624653409C
:1035D0000F930E980F990C9A0D9B801A99410E909B
:1035E0000F9108940A9B0793534606930496002371
:1035F00005936346DA0F02920090019143463A0028
:1036000059462800FFF76EFA0700C9E71C9A111DFA
:103610001C911268D317D118594005940A9B049342
:10362000534603930296D20F0192009143463A000B
:1036300059462800FFF7F8F90700B1E7230605D53A
:103640001C9A111D1C910023D25E96E71C9A111D35
:103650001C91126891E71C9BDA1D07218A43110017
:1036600008311C9108940A9B0793534606930496CD
:103670000023059302931368546800930194434612
:103680003A0059462800FFF72DFA070088E71C9AF0
:10369000111D1C9105940A9B0493534603930296B3
:1036A000002301931368009343463A0059462800CB
:1036B000FFF7BAF9070073E723060DD51C9A111D11
:1036C0001C9112681204120C31E7C04648800010A9
:1036D0008C800010D88000101C9A111D1C9112685B
:1036E00025E746281AD01C9B0733072293431A006C
:1036F00008321C9204940A9A0392524602925C6821
:103700001B680093019443463A0059462800FFF78E
:1037100065FC0700119B0133119319E620231C431C
:10372000E1E7672801D0472802D180231B011C4311
:10373000452801D0472801D120231C431C9B073377
:10374000072293431A0008321C9204940A9A0392A7
:10375000524602925C681B680093019443463A000B
:1037600059462800FFF730FA0700119B01331193E7
:10377000EEE502231A002240924623421FD0012484
:103780001C9B1A1D1C927A1C9146187843463A00DD
:103790005946A8475346002B16D1119B013311936C
:1037A0004F46D5E5561C434659462020B8472300CE
:1037B00032005C1C9D42F5D83D001700E0E7012374
:1037C0003A002F000A9DF4E74A46A9460A9D06E002
:1037D000571C434659462020C84734003A00661C0F
:1037E000A542F5D84D469146D7E71C9B1A1D1C9261
:1037F0001B6899465346002B00D1013B4E4601E021
:10380000013613003278002A02D05A1E002BF7D15D
:103810004B46F21A10928023DB0026001E401C4209
:1038200003D0524501D95346109302231A00224077
:103830000B92234205D03A0037004C46A946554624
:1038400020E03A00109B5F46B3462E0006E0551C70
:10385000434639002020B04723002A005C1C0A9907
:103860009942F4D835005E46BB46109437004C466A
:10387000A946554606E01D000134561C43465946EC
:10388000C84732002078002804D0002FF4D06B1EE7
:10389000002DF0D117004D460B9B002B03D1119B3F
:1038A0000133119354E50A9F109B06E0561C4346D2
:1038B00059462020A847230032005C1C9F42F5D8BF
:1038C0001700ECE721231C431C9B1A1D1C921B684C
:1038D0000093059408230493534603931023029303
:1038E0000023019343463A0059462800FFF79CF80D
:1038F0000700119B013311932AE57C1C43463A00D3
:1039000059462520A847119B0133119327001FE535
:103910007C1C43463A005946A847119B013311933A
:10392000270015E50A4B9A4610E5AA46474502D3FB
:1039300043465A1E00E03A00434659460020D0470D
:10394000380013B0F0BCBB46B246A946A046F0BD55
:103950003528001000B585B0029003910121009335
:1039600013004A4202A90248FFF7E2FC05B000BD7D
:103970003728001001480421014B1847200C002073
:10398000A539001010B5010018231B8814221088D7
:10399000984710BD10B5010018231B881622108807
:1039A000984710BDF0B5C64600B507000E000025CB
:1039B0000123984600E00135B5420AD2AC003C191B
:1039C0002068FFF7DFFF20600028F4D1002398462D
:1039D000F1E7404680BCB846F0BD0000124A936F44
:1039E0009B0815D29066D166002905D0FFE7FFE756
:1039F000FFE7516F106F704704B580210906C217A9
:103A00005140002800D0C84303F0D2FC002104BD7F
:103A1000F0B5146E556E576F166FFFF7E3FF14661F
:103A2000556657671667F0BD000000D0114A936FC6
:103A30009B0813D210665166002905D0FFE7FFE707
:103A4000FFE7516F106F704704B5002801D00020C8
:103A5000C04303F0ADFC002104BDC046F0B5146EB8
:103A6000556E576F166FFFF7E5FF1466556657677B
:103A70001667F0BD000000D094464A4A926F920843
:103A8000624601D228E0C046F0B5464E346E756EEF
:103A9000776F366F00F020F89446424A14665566F8
:103AA000576716676246F0BD94463E4A926F920889
:103AB000624601D254E0C046F0B53A4E346E756E9F
:103AC000776F366F00F04CF89446364A14665566A8
:103AD000576716676246F0BD002B24DB11D0002922
:103AE0003EDA00B5C943404200D1013100F038F858
:103AF000C943404200D10131DB43524200D101337E
:103B000000BD002AEBD1002801D1002905D00020FA
:103B1000C90FC90701D1C043410800B503F038FC03
:103B20000022002300BD00B500290ADBDB4352421E
:103B300000D1013300F014F8C943404200D10131F3
:103B400000BDC943404200D10131DB43524200D1A4
:103B5000013300F005F8DB43524200D1013300BDD0
:103B6000002923D1002B18D1002A0CD0BC460D4FC0
:103B700038667A6600210023FFE7FFE7FFE77A6FE8
:103B8000386F67467047002801D00748010000B52C
:103B900003F0FEFB0022002300BD02000B0000200A
:103BA00000217047000000D0FFFFFFFF002B00D076
:103BB000BFE0130C28D1002AE7D080B4114F39663A
:103BC0007A66FFE7FFE730B4040C7B6F396F1B04A4
:103BD00023433B667A66FFE7FFE7FFE7C04684B210
:103BE0007B6F3D6F1B0423433B667A66FFE7FFE76D
:103BF000C04600232C042D0C7A6F386F00196941E0
:103C0000B0BC7047000000D0F0B594460025140EFB
:103C100001D112020835140F01D112010435940F9D
:103C200001D192000235D40F01D152000135D40BDD
:103C30000134254F7C66254C3C660E0C93B2FFE7A1
:103C4000FFE7FFE73C6F6643360C7703BE467343DE
:103C5000DF0B5B04C01AB941130C7343DB18C91A9C
:103C6000CE086643360CB64493B273431F0F1B0154
:103C7000C01AB941130C73431F0B1B05C01AB9417D
:103C8000860D8F023E436643360C092D24DB520A13
:103C90007243801A7703460A6643360C16235B1B71
:103CA000DE40DF40BF1964466643821B7046043520
:103CB00006330100D940A840C01900D30131A24207
:103CC00006D20023F0BD0000000000D0FFFFFFFF80
:103CD000121B0130F3D3F1E709277F1BFE40644636
:103CE000A2B27243801A00D20139220C7243130C23
:103CF0001204821A99410B007046043513370100F3
:103D0000F940A840801900D30131002B02D1A24212
:103D10000AD2F0BD013000D30131121BFAD2013BAF
:103D2000F8D1A24200D2F0BD013000D30131121B04
:103D3000F7E7F0B51C0C00D080E00CB400251C0A9D
:103D400004D11B02160E3343120208351C0B04D19A
:103D50001B01160F3343120104359C0B04D19B0049
:103D6000960F334392000235DC0B02D192185B416F
:103D700001351C00971864410134464F7C66464C5F
:103D80003C660E0CFFE7FFE7FFE7C0463C6F66436B
:103D9000360C7703BE4697B27743C01B00D2013979
:103DA000C01B00D201399FB27743C91BC91B170C36
:103DB00077437E04FF0B801BB941CE086643360C67
:103DC0000C2D33DBB644120B1F053A431B0B97B285
:103DD0007743C01B00D201399FB27743C91B170C30
:103DE00077433E043F0C801BB941860D8F023E4352
:103DF000664329277F1BFE400C3D7746AF40BF1925
:103E000030BCA2B2ABB272437343801A9941220C08
:103E10007243130C1204801A994102000B000137FF
:103E2000001BA941F9D2781E0021F0BD0C277F1B91
:103E3000FE4077467F0BAF40FF19E0E700245D1C92
:103E400007D0144F7D663966FFE7FFE7FFE7FFE71E
:103E50003C6F95B29EB265436643401BB141150C61
:103E60001E0C6543664336042F0C3E432D04401B55
:103E7000B141994204D202000B0020000021F0BDA4
:103E800001D19042F7D3801A994101349942F2D37B
:103E9000F6E70000000000D0FFFFFFFF4840414070
:103EA000484018B41B4B5B68FC46019308BD04DF17
:103EB0007741001018B4174B1B68FC46019308BDEE
:103EC00000DF814100109446134A926F920809D294
:103ED000624618B40F4BDB68FC46019308BD0CDF4B
:103EE000394400100C4AF0B5146E556E576F166FBA
:103EF0006246FFF7EEFF084A146655665767166775
:103F0000F0BD18B4034B9B68FC46019308BD08DF65
:103F1000DD42001018180020000000D0FFB550400E
:103F20004240504059404B40594000E0FFB5154FCA
:103F30004C00640D03D0BC4204D10C0314D8002003
:103F4000090D09055C00640D03D0BC4204D11C03BB
:103F50000AD800221B0D1B0501264B4009D44B40FB
:103F600003D58B4200D18242FFBD9942FCD19042E1
:103F7000FFBD0B43DB1803431343F5D0C943491876
:103F8000FFBD0000FF07000000B5FFF7CFFF804135
:103F900000BDC04600B5FFF7C9FF01D9002000BD34
:103FA000012000BD00B5FFF7B9FF01D9002000BD19
:103FB000012000BD00B5FFF7B1FF804100BD012029
:103FC00040054A00121804D85A00121801D80020DF
:103FD0007047012070470020704700000021002832
:103FE00005D17047C1174840401AFAD0C90713B528
:103FF000064B1B6898470CBC441CA2401005120BD2
:104000000349091B09051943114310BD1819002064
:104010001F04000010B54C00620D8023D218DB0095
:10402000D21A5B057E2A10DD9E3A13DACC170903FB
:10403000490819435242D140640001341532202A04
:1040400005DAD0400843604310BD002010BD08468B
:10405000604310BDC80FC018013810BD18B4044B20
:104060005B6AFC46019308BD24DFE94500100000AF
:104070001818002070B513231C78012C14D0012CC3
:1040800014DC022C02DC1F4A1F4B9A641F48FFF706
:1040900079FC1F4B186070BD99001A481A4A885065
:1040A00001331F2BF8D9EAE70023FAE71948FFF795
:1040B00071FC05001848FFF76DFC023803789B007F
:1040C0007F2B19DD802229000F4800F0ABFB022C6A
:1040D000D7D1124B1A88B5231B029A4209D1104B33
:1040E0001A88104B9A4204D10F4B1A880F4B9A42F0
:1040F000C7D00020FEF786FB0D4B0E4A32210E483A
:10410000FEF7E6FA3D410010181800204C3300007D
:104110001819002053440000534600005438000092
:10412000D8380000494600009C380000594600007D
:104130007882001028830010D882001007B56046EE
:10414000002800D100BE01880A0A0230DF2AFAD115
:10415000C9B2820804D3028840880004104300E0FA
:104160000068024A5050039007BD00001818002054
:104170000FB403BC0CBCF0B50124E407634000E0BD
:10418000F0B50C0DCF0F661E3605891B640503D3F1
:10419000C943404200D30131640D03D0661CF60AC6
:1041A00007D0E41B00207F00791C89078912803C1E
:1041B00024031D0DDF0F6E1E36059B1B6D0503D3FB
:1041C000DB43524200D301336D0D03D06E1CF60A5F
:1041D00007D0ED1B00227F007B1C9B079B12803DBC
:1041E0002D032F1B661B58D4A446202E46DA2037F9
:1041F0001400BC401D00BD40F24033412A438018EA
:104200005941CB0F05D0C943C043002264425041FD
:10421000514162464D0D28D10D0D07D100281FD008
:10422000241940414941013A0D0DF9D0640006D3EB
:10423000013000D30131002C01D140084000013A87
:104240000BD4941CE40A04D112051144DB07194471
:10425000F0BDD907204B194300E0D9070020F0BD7D
:104260000029DDD1002CDBD1F0BD0132C6074008AA
:10427000CD0728434908002EE1D0D9E73C2E29DAA2
:10428000203E40371400BC4000D00124F2401443CB
:104290001A00BB401C43D317ACE7AC46202F08DA0A
:1042A00020360400B4400D00B540F84039412843A1
:1042B000A5E73C2F0CDA203F40360400B44000D084
:1042C0000124F84004430800B1400C43C117EAE759
:1042D00010001900002494E70000F07FF0B50C0DE9
:1042E000661E3605891BE60A6405640D02D0651C4E
:1042F000ED0A04D0002001210905803C2403A446D6
:104300001C0D671E3F05DB1BE70A6405640D02D028
:10431000651CED0A04D0002201231B05803C240308
:104320007740644497B484B296B27443070C7E43DA
:10433000150C6F4380B26843361802D30120000485
:104340003F183004350C00197D41844688B29AB27A
:1043500050430C0C62431F0C7C438EB27E43921977
:1043600002D301263604A4191604170C3618674127
:1043700001BC81B29AB25143040C62431B0C5C43F2
:1043800080B25843121802D30120000424181004EC
:10439000130C401863412D185E410020474106BCB4
:1043A00088B293B258430C0C6343120C544389B245
:1043B00051435B1802D301210904641819041A0C33
:1043C000091862416D1856410020474118BCF90296
:1043D000720D1143F0026A0D1043ED020A0D03D174
:1043E0006D1940414941013B124E9B1B7600B3427F
:1043F0000ED26D0007D30130002671416646354369
:1044000001D1400840001B05C918E4072144F0BD54
:104410000BDA013306D1013004D101314F0D01D047
:104420004908F2E7E1070020F0BD01363105002020
:10443000EBE70000FF030000F0B51C0D671E3F0511
:10444000DB1BE70A6405640D02D0661CF60A04D083
:10445000002201231B05803C2403D0252D060026C5
:10446000F6432E661E096E66CE0FF619B446490055
:104470004F0D02D07E1CF60A03D000200021403FE1
:104480003F033E1BB600B444013F7F05C91B4908EA
:104490002E6F013676089C02950D25437543ED136A
:1044A0007543AD1301356D10F603761B0CB4CC02C9
:1044B000450D2C43A2B2B3B25A43270C7B43350CB3
:1044C0006F43A4B26C431B1902D3012424043F1987
:1044D0001C041D0CA4187D4124196D41009A91B251
:1044E000ACB26143170C7C432B0C5F4392B25A432E
:1044F000A41802D301221204BF182204230C52185C
:104500007B41019C6C431B19520ED9010A434401A3
:10451000A01A81B2B2B2514303145A43360C73430A
:1045200087B27743D617D21900277E4136049B19EC
:104530001704160C7F185E417316ED18F301002660
:1045400080337541A90F06D16400690AE8055B0A4A
:10455000184309D22FE00422944480337541A90AFC
:10456000A8059B0A184326D3404149412404009AD8
:10457000019B0D005543641B4343E41A95B286B278
:104580007543170C7E43030C5F4392B25A43B6182F
:1045900002D301221204BF183204330C52197B419A
:1045A00052429C41002C02D400220130514140086B
:1045B000CA071043490802B06246D7079210084B59
:1045C000D218084B9A4203D212058918C919F0BDB6
:1045D0000020002A01DC3900F0BD01331905F5E7A0
:1045E000FD030000FE070000002200B5203200F0AD
:1045F00004F8080000BD000000220B150AD410B515
:10460000944600F031F81414013400DA0021CB177D
:10461000144C20470020002170476244343A0CD4E7
:104620000C2A07DA04009140904052422032D440D4
:10463000214310BDD843D94310BD203207D40C46C6
:104640009440524220321141D040204310BD080016
:10465000C917203203D452422032104110BD180035
:10466000190010BD1B4600100A0DCC0F531E1B0570
:10467000C91A520503D3C943404200D30131520D38
:1046800003D0531CDB0A07D0121B00206400611CFE
:1046900089078912803A1203014BD21A7047000031
:1046A000FF03000051434343C9188C46110C83B2E9
:1046B0004B4310B4040C614392B280B25043624346
:1046C0001C041B0C001910BC59411304120CC01817
:1046D000514161447047000070B513231D782A488A
:1046E000FFF758F90400012D11D0012D09DDA31E9B
:1046F0001B789B007F2B40DD80222100234800F0A7
:1047000091F82348FFF73EF9224B186070BD542200
:1047100001001E4800F086F81F4B1A881F4B9A4272
:104720001CD1A7239B011A881D4B9A4216D11D4B01
:104730001A881D4B9A4211D11C4B1A8894239B0155
:104740009A420BD11A4B1A881A4B9A4206D11A4B2D
:104750001A681A4B9A4201D1152307E01848FEF750
:1047600051F899001748094A885001331F2BF8D98E
:10477000144A064B1A62DA61B7E7134B134A422117
:104780001348FDF7A5FFC046534600001C19002042
:104790004C33000018190020EE290000C40F00005F
:1047A000C20D0000962B0000C0B50000182B0000C1
:1047B000CC2A000010B50000FC2C000051ED8764ED
:1047C000707F0010D54700103C830010C08300109C
:1047D0007083001007B56046002800D100BE018834
:1047E0000A0A0230DF2AFAD1C9B2820804D3028849
:1047F00040880004104300E00068024A50500390D3
:1048000007BD00001C19002001480421014B184776
:10481000300C0020A5390010014B1B681847000020
:10482000300C0020014B5B6818470000300C002062
:1048300010B50300080011001B68984710BD000068
:10484000F8B507000D001600437D002B02D00024B0
:1048500000200CE003681100280098472DE03B7D04
:1048600010E0022115483B689847601C0134B442AF
:1048700014DA002CF3DD2B19013B1B780D3B5A4257
:104880005341DBB22A5D0A2AF0D1002BEED1A042BF
:10489000E7DA211A28183B689847E2E7B04203DAC2
:1048A000311A28183B689847002E06DDAD19013DE6
:1048B0002B780D3B5A4253413B75F8BD4C84001098
:1048C00070B505000368002B16D00C4B1C6805E082
:1048D000290004C92000FFF7B3FF2469002C09D088
:1048E0002368002BF9D0064B1B68002BF0D0A342A5
:1048F000F3D1EDE700232B6070BDC046DC13002030
:10490000E413002070B505000C000B68802B05D067
:1049100021684B1C23606418257170BD0800FFF7E7
:10492000CFFFF5E710B5FDF70BF902000B1E0BDB0F
:104930000D48002112184B41002B0BDB002B0DDB27
:104940000A4802F055FD10BD094B0A4A3F210A48AA
:10495000FDF7BEFE01225242084BEFE7044B054A29
:104960003F210548FDF7B4FE40420F00980C00209F
:10497000E87700103484001004780010FFFFFF7FF8
:1049800010B5024802F0FCFC10BDC046980C002097
:10499000F0B5CE46474680B583B006000D00904680
:1049A0001C00FFF7BFFF81466B1C05D0002C08D010
:1049B000194F1A4B1C6807E0300002F0A9FC0500F3
:1049C000F4E7174FF5E72469002C17D02368002B74
:1049D000F9D0144B1B68002B01D0A342F3D12A005D
:1049E00031002000B8474346002BECD06B46D91D60
:1049F0000A230B7001222000B847E4E74B46002B46
:104A000007D16B1E9D41E8B203B0C0BCB946B046A9
:104A1000F0BDFFF7B5FFF4E731480010DC130020CC
:104A200041480010E4130020094A01E010331A0045
:104A30001368002B08D08342F8D1002907D10369FD
:104A400013600023036102E0002900D0106070476A
:104A5000DC13002010B5064B1C6801E09847246960
:104A6000002C03D06368002BF8D1F8E710BDC046D6
:104A7000DC13002070B5050002F04AFC040000239E
:104A8000012201002800FFF783FFFFF7E3FF20006A
:104A900070BD000070B5A2B004000E00FFF742FF29
:104AA0000500002301933300220001A90848FEF706
:104AB00051FF040001A8FFF703FFFFF7CBFF002D14
:104AC00002D1200022B070BDFFF75AFFF9E7C046BF
:104AD000054900100FB400B583B004A901C90191C4
:104AE000FFF7D8FF03B008BC04B0184710B500F0BA
:104AF000FBF800F03FFA012010BD0000F0B583B0D4
:104B000005000E0000240FE06B46D91D0D230B702D
:104B10000020002816D193699B06FCD40B78136003
:104B200001300131F5E70134B44219DA0D4B1A684E
:104B30002F5D0D4BD31859424B415B000B495B5E17
:104B4000BB42E1D06B46D91D0F7000200028EAD18E
:104B500093699B06FCD40B78136001300131F5E7B3
:104B600003B0F0BD3C1A00200080FCBF381A0020C2
:104B7000F0B583B006000F00002504E06B46073354
:104B80001B782B702500BD4215DA174B1A68936904
:104B90001024210019401C420DD16C1C75196B4664
:104BA000D81D0029EAD19369DB06FCD41368037091
:104BB00001310130F5E70D4B1B68002B0CD00A4B7F
:104BC0001A685023936311003431536B38221A4012
:104BD00080235B010B431A60002D02D0280003B034
:104BE000F0BD033DFAE7C0463C1A00203813002010
:104BF00010B5064B1B68002B06D0054A1268002131
:104C00009163044A1068984710BDC04638130020CD
:104C10003C1A00204013002070B504000E001C4B0D
:104C20001B681C4A98184242504114300500002C61
:104C300003D0194A1268002A06D0002C19D0164B4E
:104C40001C60164B1E6070BD1549FBF795FE0121D7
:104C50002800FBF767FE0E4B1A6850239363110080
:104C60003431536B38221A4080235B010B431A60A6
:104C7000E5E7094A1268002AE1D000229A63002180
:104C80002800FBF74FFE06492800FBF7B9FFD6E7DF
:104C90003C1A00200080FCBF381300204013002085
:104CA000F14B001070B50D001C000D4B1860002A70
:104CB0000BDA002C0EDA0A4B18682900FDF79EFA71
:104CC00001210848FFF7B0FE70BD02211000FBF77C
:104CD00031FCEEE702212000FBF72CFCEBE7C0469D
:104CE0003C1A0020400C002010B5064B1B78064BE8
:104CF0001B78E1210123002249020448FFF7D2FF7B
:104D000010BDC046C48A0010C88A0010004003408D
:104D100070470000014B00221A707047561A00209D
:104D20004B79FF2B0CD18B79002B0BD1CB79012B3D
:104D30000AD1082A0AD98A78054B1A70092000E09E
:104D4000002070470020FCE70020FAE70020F8E789
:104D5000561A00200120704770B504000D0003486A
:104D6000FEF710FE0300290020009847554200007E
:104D700010B5012926D1117953791B020B43124931
:104D800009788B4201D000201DE05378012B03D01D
:104D9000022B10D0002016E09178D3781B02194323
:104DA000DB0506D54B0A012098407F231940FFF709
:104DB000D3FF0020F9E7642200210020FDF74AFC20
:104DC000012000E0012010BD561A002001230370CD
:104DD000004870479084001010B50B7848780002A6
:104DE00018438A7812041043CB781B06034396229B
:104DF000D200934200D010BD00210800FFF7ACFFA5
:104E0000024B1860024B19607047C0463C130020EB
:104E10004413002010B5024B1878FBF78BFD10BD32
:104E2000571A002070B5124B1B68002B1BD0EFF3F4
:104E3000108272B619680029FCD0BFF35F8F0C494D
:104E40004A6000230B4803700968BFF35F8F0B6053
:104E500082F3108800240025074B1878FBF76AFDC1
:104E60002000290070BDFA24A4000025F4E7C04604
:104E7000F0170020581A0020571A002010B584B0EF
:104E800000212C4802F09CFA002838D12A4B1B68DC
:104E9000002B3CD0EFF3108272B619680029FCD0C9
:104EA000BFF35F8F24494A6024480378012463409C
:104EB000DBB2012404700968BFF35F8F0020086033
:104EC00082F31088002B22D0FCF7A2FB0400FCF731
:104ED00037FE02000B1E1CDBFA2080000021121896
:104EE0004B41002B1BDB002B1DDB0121029100211C
:104EF0000191134900912000FCF7A0FB07E001207D
:104F00000021404201F0F8F80A4802F039FA04B0F2
:104F100010BD0C4B0C4A3F210C48FDF7D9FB012278
:104F200052420B4BDFE7074B074A3F210748FDF78B
:104F3000CFFBC046201A0020F0170020581A00208E
:104F4000254E0010E877001024850010047800102A
:104F5000FFFFFF7F10B5054B1868002804D0044BF5
:104F60001968002200F0EEFD10BDC0463C13002081
:104F70004413002010B584B0D0231B061C68FCF736
:104F800047FBFCF787FCA0422FD1D0231B061A78E1
:104F9000334B1A70334B1B7801F094FD3248FBF70A
:104FA000A7FF0120FBF788FFC0B2304C20703049CA
:104FB000FBF7E2FC20780121FBF7B4FC0520FBF7AE
:104FC000C9FC041E17D000222A490520FBF7FEFC6D
:104FD000FBF716FC01002848FBF7A6FF0121274834
:104FE000FFF722FD200004B010BD254B254AB52156
:104FF0002548FDF76DFBFCF70BFB0400FCF7A0FD5B
:1050000002000B1E1BDBFA208000002112184B410E
:10501000002B1ADB002B1CDB0121029100210191E6
:105020001A4900912000FCF709FBC443E40F082251
:1050300000211148FFF7F0FB002CD3D0CEE7144B32
:10504000144A3F211448FDF743FB01225242134BFF
:10505000E0E70F4B0F4A3F210F48FDF739FBC046F1
:10506000591A0020CC8A0010201A0020571A00205C
:105070007D4E0010154E0010F0170020580C002037
:105080009476001014850010A8840010254E00109E
:10509000E87700102485001004780010FFFFFF7FE0
:1050A00010B5002001F02EFA10BD000070B505000B
:1050B0000C00FFF7F5FF002845D0002001F044FA6E
:1050C000002843D0FCF73CFD02000B1E21DB2248E8
:1050D000002112184B41002B21DB002B23DB1F4842
:1050E00002F086F9002834D0FFF7DAFF002804D058
:1050F000002001F029FA00281BD1012000214042A4
:1051000000F0FAFF03246442144802F039F9200049
:1051100070BD134B134A3F211348FDF7D9FA012202
:105120005242124BD9E70E4B0E4A3F210E48FDF773
:10513000CFFA22002900002001F012FA041EE3D168
:1051400003246442E0E703246442E0E7032464426A
:10515000DDE703246442DAE740420F00201A002012
:10516000E87700102485001004780010FFFFFF7F0F
:10517000F0B5C64600B580460C00FCF7E1FC020025
:105180000B1E0FDB3748002112184B41002B0FDBA1
:10519000002B11DB344802F02BF9002812D180BC1F
:1051A000B846F0BD314B324A3F213248FDF790FA04
:1051B00001225242304BEBE72C4B2D4A3F212D4828
:1051C000FDF786FAFFF76CFF002849D12B4B002032
:1051D000002118605960244802F0D2F8DFE701206E
:1051E0000021404200F088FF002001F0CDF9FFF7D8
:1051F00057FF0028EFD0002001F03EFA002820D011
:10520000A542E8DA661B002001F036FA0200864269
:1052100000DC3200002AE2D043465919002001F098
:105220000FFA060001200021404200F065FF002037
:1052300001F0AAF9AD19FCF783FC104B1860596016
:10524000DEE7FCF77DFC0D4B1E685F680C4A00230F
:1052500092197B419942BED8D2D19042D0D9BAE7B7
:105260000025CDE740420F00201A0020E87700100B
:105270002485001004780010FFFFFF7FB80D002088
:1052800020A1070000487047BC8500100048704707
:105290006885001010B50400154B1B78002B0ED04C
:1052A000002C11D1134B144A5A80012301335B00A7
:1052B0001BB2C022920013430E48038010BD11217F
:1052C0000B4800F025F8EBE7052C0ED8A4000B4B9B
:1052D000E4580023122BE9D8E25C002AE6D001331F
:1052E000590004484252DBB2F4E70020E6E7C0462A
:1052F000401A0020B413002009040000D0850010DB
:1053000010B5024800F034F810BDC0461018002057
:1053100010B5002901D000230AE0114B114A1F31BA
:105320001148FDF7D5F900240DE03732C25401339E
:105330004A1E9A420FD90F2B0DD85A080B4CA25C6B
:10534000DC07F0D40424224114000F222240092A51
:10535000EBDC3032EAE7C0180023037010BDC04612
:10536000E88500103C860010F08500101018002021
:1053700070B588B0040004AD00260496092200210F
:1053800005A8FFF749FA00960922002101A8FFF7B6
:1053900043FA4B232B700D226946280001F0E8FFE9
:1053A000002304E05A1D69468A5CE2540133072B4E
:1053B000F8DD08B070BD000002007F201040D20967
:1053C000400080184001014BC0187047E8130020CE
:1053D00010B5038B3F333F229343022915D0124C63
:1053E0002268C260D31823609C0610D10F4C624023
:1053F000634080246401A3420FD8890611438023AF
:105400001B0619434368196010BD5B00E7E7084BB2
:10541000084A54210848FDF75BF9084B054A562114
:105420000548FDF755F9C046EC1700200000105064
:10543000CC870010EC880010FC8700105888001002
:10544000F8B505000E001400FFF7B6FF7F232B40D0
:10545000EF0985707A427A4142700022C270068359
:10546000C476012F0DD0DA0012498C466244826066
:10547000826800211160002B09D143600E4BC3608C
:10548000F8BDDA000D498C4662448260F0E7012FD6
:1054900009D0013BDB000A4A944663444360210083
:1054A000FFF796FFECE7013BDB00064A94466344B6
:1054B0004360F4E784001050000110508000105049
:1054C0000C0010500800105070B50C001500FFF7CC
:1054D00073FF2A00210000F00DF970BD10B50028FF
:1054E00004D101210520FBF71DFA10BDD521034B86
:1054F000034A49000348FDF7EBF8C046A0880010B6
:10550000DC880010FC87001010B5002805D10022AF
:1055100000218020FFF7D8FF10BDDB21024B034A9A
:1055200049000348FDF7D4F8A0880010CC8800108B
:10553000FC870010024B80225202DA647047C0469A
:105540000020115070B5041E26D100F0ADF8164DA4
:105550000C23AB67FF2215490520FBF737FA4022E1
:1055600000211348FFF758F9002240210020FFF7DF
:1055700067FF002240218020FFF762FF01F060FFFB
:1055800001232B6480239B05EB649023094AEA5096
:105590002000FFF7CFFF70BD8621074B074AFF3180
:1055A0000748FDF795F8C04600001150A1040020FF
:1055B000E813002010D00100A0880010008900101E
:1055C000FC8700100B785B0602D14B78052B00D0CE
:1055D00070478A78014B1A60FAE7C0460000115004
:1055E00010B50C0000280DD1097963791B020B431B
:1055F0005B05590DE2789207920FA078FFF720FF24
:10560000012010BDFC21034B034AFF310348FDF785
:105610005FF8C046A0880010BC880010FC8700100E
:1056200010B501F00DFF10BD10B504000800110009
:105630001A00002C03D1FFF747FF012010BD034BD8
:10564000034A04490448FDF743F8C046A088001007
:10565000AC8800100A020000FC87001010B508009A
:105660004B0605D1CB09012B0AD00222054B9A66C5
:10567000FFF7A2FE80221201002101F0D9FE10BD29
:105680000122F3E70020115010B508004B0600D1AD
:1056900010BDFFF791FE0023C3700022014901F005
:1056A000C7FEF5E7FFF7FFFF10B580235B040C4A48
:1056B00013600C4A13600C4B9A6880235B0493437D
:1056C000F9D10A4C9C2200212000FFF7A5F8802286
:1056D000520100210648FFF79FF80923636710BDB8
:1056E00000E0004000F0004000C000400000115009
:1056F0000000105070B504000D001600837E002BD2
:1057000017D1A6820023E3820133A376256120000E
:1057100001F046FE002804D0094A90238021890226
:10572000D150200001F074FE002805D0012323771A
:1057300070BD01F075FEE4E7200001F061FEF7E7BF
:105740000020115070B5050000240CE063001B1907
:10575000DA00184B1B689B18002B2AD05B682800C6
:1057600098470134E4B2144B1B78A34210D3134A78
:10577000002A0BD0A342E9D8E31ADBB2002B18D1E0
:105780005A00D218D2000E4B9B18E5E72300F5E72C
:105790000C4C532200212000FFF73EF8E01C1022A1
:1057A000FF21FFF739F8200013302022FF21FFF7F7
:1057B00033F870BDDC0D0020511A0020CD4D0010D3
:1057C000908A00100411002010B5FFF7BBFF00F015
:1057D000EFFD10BD70B505000C001600C86800F0A4
:1057E000F1FDE368320001212800984770BD0000F8
:1057F000F0B5DE4657464E46C0B582B0009001393E
:10580000C8B2FFF743FD002800D18CE043789A46E8
:10581000022B00D089E0C5796A11013B4B491A403F
:1058200014010A781027BA4322430A70AD112B40A5
:105830005B01D2B22024A24313430B700600093649
:105840008278C478240214430419A64264D273787F
:105850000B2B09D001239B467378042B6CD1A31B1F
:105860009BB29946002525E0F3789B463378F618DD
:10587000F2E76F007F19FB00354A1768FF182BE02D
:105880002B0022E0BA68334B9A4234D1D34632E03F
:105890002E482B00019F3A003100133001F0A0F98F
:1058A000BC4666442C4B1B78AB42CED200203DE078
:1058B0000135EDB2284B1B78AB42F3D3274A002ABF
:1058C000DED0AB42D5D8EB1ADBB2002B36D15F006D
:1058D000FB18DB00224FFF18002F31D04A46310061
:1058E0000098BB68984701900828E1D98145DFD32B
:1058F0005B46012BC6D000229345C9D9B3789B18CB
:10590000DBB21249C918C978FF291BD10F49CB183E
:10591000DD700132D2B2EFE7124B002B14D000E061
:1059200000BF012002E0002000E0002002B0E0BC47
:10593000BB46B246A946F0BD0020F7E70020F5E7D8
:105940000020F3E70020F1E70120EFE70411002039
:10595000DC0D002095670010511A0020CD4D00107D
:10596000908A00100000000070B505000C00CB7894
:1059700088780F2B50D89A002E498A589746FFF7FF
:1059800081FC020012232100280000F0D7FC44E033
:10599000294B002B42D000E000BF021E40D081788E
:1059A000C3781B020B432100280000F0C7FC34E041
:1059B000022B09D0214B002B34D000E000BF0200A5
:1059C000002A05D1002028E0FFF760FC0200F7E77D
:1059D0009178D3781B020B432100280000F0AEFC25
:1059E0001BE02379617909021943FFF753FC021E7A
:1059F0001AD003782100280000F0A0FC0DE0104B25
:105A0000002B13D000E000BF021E11D0037821004C
:105A1000280000F093FC00E0002070BD0020FCE7AF
:105A20000020FAE70020F8E70020F6E70020F4E77E
:105A30000020F2E7048A00100000000000000000CF
:105A400000000000024B5878431E9841C0B27047D6
:105A500004110020024B18784007C00F7047C04661
:105A600004110020034B1878FF38431E9841C0B240
:105A70007047C046940C002070B50400FFF7F2FF99
:105A8000061E01D0300070BD532200212348FEF7CE
:105A9000C3FE234D2800FBF72BFA224B1D60224D3D
:105AA00028001430FBF74AFA280001F0EEFB1F4BE8
:105AB0001D601F4B002B04D01E48FFF787F91E4BBB
:105AC000186000250BE06B005B19DA001A4B1B68AD
:105AD0009B18002BD6D01B6898470135EDB2154BAB
